:100000000C942A001895000018950000189500001F
:10001000189500001895000018950000189500002C
:10002000189500001895000018950000189500001C
:10003000189500001895000018950000189500000C
:1000400018950000189500001895000018950000FC
:10005000189500008FE58DBFC0E4E8E34E2E84E0E4
:100060008EBFD4E0F4E05F2EEEEFF3E0A0E6B0E068
:10007000A89584B7082E877F84BF88E1992781BD22
:1000800091BD88278D933197E9F7662480E08ABB7C
:1000900080E084BB8FEF87BB80E88093610083E0C2
:1000A00080936300A6E6B0E089B38C93009166006C
:1000B000023011F00C94610081E0809365000C9493
:1000C000A10000916600043011F00C946C0082E0F5
:1000D000809365000C94A10000916600083011F037
:1000E0000C94770083E0809365000C94A10000914C
:1000F0006600003111F00C94820084E0809365006A
:100100000C94A10000916600003211F00C948D0057
:1001100085E0809365000C94A10000916600003496
:1001200011F00C94980086E0809365000C94A10077
:1001300000916600003811F00C94A10087E08093D4
:100140006500A7E6B0E083B38C93009167000230AE
:1001500011F00C94B80000916300043110F00C947D
:10016000B600A3E6B0E08C918F5F8C930C94CC002A
:1001700000916700013011F00C94CC0000916300F5
:10018000013018F011F00C94C7000C94CC00809151
:10019000630081508093630000916500013011F08D
:1001A0000C94D4000E94060100916500023011F009
:1001B0000C94DC000E94290100916500033011F0CD
:1001C0000C94E4000E94380100916500043011F0A5
:1001D0000C94EC000E94480100916500053011F07C
:1001E0000C94F4000E94580100916500063011F053
:1001F0000C94FC000E94640100916500073011F02E
:100200000C9404010E94B9010C9452008091650085
:100210008093620081E8809360000E94770282E40C
:10022000809360000E94770284E2809360000E94C5
:10023000770288E1809360000E94770284E28093D5
:1002400060000E94770282E4809360000E9477023F
:10025000089580916500809362008AEA809360002F
:100260000E94770285E5809360000E9477020895DE
:10027000809165008093620091E0A1E6B0E00E9469
:100280003D0380916100809360000E947702089591
:10029000809165008093620091E0A1E6B0E00E9449
:1002A000330380916100809360000E94770208957B
:1002B0008091650080936200A0E6B0E08C9180950B
:1002C0008C930E947702089580916500809362006C
:1002D00081E0809360000E94770283E08093600059
:1002E0000E94770287E0809360000E9477028FE08F
:1002F000809360000E9477028FE1809360000E94EB
:1003000077028FE3809360000E9477028FE78093EB
:1003100060000E9477028FEF809360000E94770256
:100320008FE7809360000E9477028FE380936000E4
:100330000E9477028FE1809360000E9477028FE035
:10034000809360000E94770287E0809360000E94A3
:10035000770283E0809360000E94770281E08093BF
:1003600060000E94770280E0809360000E94770224
:100370000895809165008093620081E88093600019
:100380000E94770282E4809360000E94770284E2F8
:10039000809360000E94770288E1809360000E9451
:1003A000770284E2809360000E94770282E4809367
:1003B00060000E9477028FEF809360000E947702B6
:1003C00080E0809360000E9477028FEF809360004E
:1003D0000E94770280E0809360000E9477028AEAA0
:1003E000809360000E94770285E5809360000E9400
:1003F00077028AEA809360000E94770285E5809305
:1004000060000E9477028FEF809360000E94770265
:1004100080E0809360000E9477028FEF80936000FD
:100420000E94770281E0809360000E94770283E05F
:10043000809360000E94770287E0809360000E94B2
:1004400077028FE0809360000E9477028FE18093B3
:1004500060000E9477028FE3809360000E94770221
:100460008FE7809360000E9477028FEF8093600097
:100470000E9477028FE7809360000E9477028FE3EB
:10048000809360000E9477028FE1809360000E9459
:1004900077028FE0809360000E94770287E080936C
:1004A00060000E94770283E0809360000E947702E0
:1004B00081E0809360000E94770280E0809360007A
:1004C0000E9477028FEF809360000E94770280E0A5
:1004D000809360000E9477028FEF809360000E94FB
:1004E000770280E0809360000E9477020895A0E682
:1004F000B0E08C9188BB81E0809364004091630000
:1005000000916400041718F011F00C94950284E631
:1005100090E00E9424030E949602A4E6B0E08C9131
:100520008F5F8C9310F40C947E020895A6E6B0E0E1
:1005300089B38C9300916600023011F00C94A502EF
:1005400081E0809362000C94E50200916600043023
:1005500011F00C94B00282E0809362000C94E502EA
:1005600000916600083011F00C94BB0283E0809388
:1005700062000C94E50200916600003111F00C94C9
:10058000C60284E0809362000C94E502009166004C
:10059000003211F00C94D10285E0809362000C943B
:1005A000E50200916600003411F00C94DC0286E054
:1005B000809362000C94E50200916600003811F00F
:1005C0000C94E50287E080936200A7E6B0E083B375
:1005D0008C9300916700023011F00C94FC020091A2
:1005E0006300043110F00C94FA02A3E6B0E08C91A1
:1005F0008F5F8C930C94100300916700013011F011
:100600000C94100300916300013018F011F00C9469
:100610000B030C941003809163008150809363005E
:100620004091650000916200041711F40C941A03C4
:100630000C94520008953197F1F70895689462F888
:100640000895E89462F80895EF93FF93EE27E82B5E
:10065000E92B31F0EAEFF0E03197F1F70197D1F7AC
:10066000FF91EF910895903039F08C91880F08F444
:1006700081609A95D9F78C930895903039F08C91D8
:0E068000869508F480689A95D9F78C930895B2
:00000001FF
